{
  "_format": "hh-sol-artifact-1",
  "contractName": "ERC721A",
  "sourceName": "erc721a/contracts/ERC721A.sol",
  "abi": [
    {
      "inputs": [
        {
          "internalType": "string",
          "name": "name_",
          "type": "string"
        },
        {
          "internalType": "string",
          "name": "symbol_",
          "type": "string"
        },
        {
          "internalType": "uint256",
          "name": "maxBatchSize_",
          "type": "uint256"
        }
      ],
      "stateMutability": "nonpayable",
      "type": "constructor"
    },
    {
      "anonymous": false,
      "inputs": [
        {
          "indexed": true,
          "internalType": "address",
          "name": "owner",
          "type": "address"
        },
        {
          "indexed": true,
          "internalType": "address",
          "name": "approved",
          "type": "address"
        },
        {
          "indexed": true,
          "internalType": "uint256",
          "name": "tokenId",
          "type": "uint256"
        }
      ],
      "name": "Approval",
      "type": "event"
    },
    {
      "anonymous": false,
      "inputs": [
        {
          "indexed": true,
          "internalType": "address",
          "name": "owner",
          "type": "address"
        },
        {
          "indexed": true,
          "internalType": "address",
          "name": "operator",
          "type": "address"
        },
        {
          "indexed": false,
          "internalType": "bool",
          "name": "approved",
          "type": "bool"
        }
      ],
      "name": "ApprovalForAll",
      "type": "event"
    },
    {
      "anonymous": false,
      "inputs": [
        {
          "indexed": true,
          "internalType": "address",
          "name": "from",
          "type": "address"
        },
        {
          "indexed": true,
          "internalType": "address",
          "name": "to",
          "type": "address"
        },
        {
          "indexed": true,
          "internalType": "uint256",
          "name": "tokenId",
          "type": "uint256"
        }
      ],
      "name": "Transfer",
      "type": "event"
    },
    {
      "inputs": [
        {
          "internalType": "address",
          "name": "to",
          "type": "address"
        },
        {
          "internalType": "uint256",
          "name": "tokenId",
          "type": "uint256"
        }
      ],
      "name": "approve",
      "outputs": [],
      "stateMutability": "nonpayable",
      "type": "function"
    },
    {
      "inputs": [
        {
          "internalType": "address",
          "name": "owner",
          "type": "address"
        }
      ],
      "name": "balanceOf",
      "outputs": [
        {
          "internalType": "uint256",
          "name": "",
          "type": "uint256"
        }
      ],
      "stateMutability": "view",
      "type": "function"
    },
    {
      "inputs": [
        {
          "internalType": "uint256",
          "name": "tokenId",
          "type": "uint256"
        }
      ],
      "name": "getApproved",
      "outputs": [
        {
          "internalType": "address",
          "name": "",
          "type": "address"
        }
      ],
      "stateMutability": "view",
      "type": "function"
    },
    {
      "inputs": [
        {
          "internalType": "address",
          "name": "owner",
          "type": "address"
        },
        {
          "internalType": "address",
          "name": "operator",
          "type": "address"
        }
      ],
      "name": "isApprovedForAll",
      "outputs": [
        {
          "internalType": "bool",
          "name": "",
          "type": "bool"
        }
      ],
      "stateMutability": "view",
      "type": "function"
    },
    {
      "inputs": [],
      "name": "name",
      "outputs": [
        {
          "internalType": "string",
          "name": "",
          "type": "string"
        }
      ],
      "stateMutability": "view",
      "type": "function"
    },
    {
      "inputs": [],
      "name": "nextOwnerToExplicitlySet",
      "outputs": [
        {
          "internalType": "uint256",
          "name": "",
          "type": "uint256"
        }
      ],
      "stateMutability": "view",
      "type": "function"
    },
    {
      "inputs": [
        {
          "internalType": "uint256",
          "name": "tokenId",
          "type": "uint256"
        }
      ],
      "name": "ownerOf",
      "outputs": [
        {
          "internalType": "address",
          "name": "",
          "type": "address"
        }
      ],
      "stateMutability": "view",
      "type": "function"
    },
    {
      "inputs": [
        {
          "internalType": "address",
          "name": "from",
          "type": "address"
        },
        {
          "internalType": "address",
          "name": "to",
          "type": "address"
        },
        {
          "internalType": "uint256",
          "name": "tokenId",
          "type": "uint256"
        }
      ],
      "name": "safeTransferFrom",
      "outputs": [],
      "stateMutability": "nonpayable",
      "type": "function"
    },
    {
      "inputs": [
        {
          "internalType": "address",
          "name": "from",
          "type": "address"
        },
        {
          "internalType": "address",
          "name": "to",
          "type": "address"
        },
        {
          "internalType": "uint256",
          "name": "tokenId",
          "type": "uint256"
        },
        {
          "internalType": "bytes",
          "name": "_data",
          "type": "bytes"
        }
      ],
      "name": "safeTransferFrom",
      "outputs": [],
      "stateMutability": "nonpayable",
      "type": "function"
    },
    {
      "inputs": [
        {
          "internalType": "address",
          "name": "operator",
          "type": "address"
        },
        {
          "internalType": "bool",
          "name": "approved",
          "type": "bool"
        }
      ],
      "name": "setApprovalForAll",
      "outputs": [],
      "stateMutability": "nonpayable",
      "type": "function"
    },
    {
      "inputs": [
        {
          "internalType": "bytes4",
          "name": "interfaceId",
          "type": "bytes4"
        }
      ],
      "name": "supportsInterface",
      "outputs": [
        {
          "internalType": "bool",
          "name": "",
          "type": "bool"
        }
      ],
      "stateMutability": "view",
      "type": "function"
    },
    {
      "inputs": [],
      "name": "symbol",
      "outputs": [
        {
          "internalType": "string",
          "name": "",
          "type": "string"
        }
      ],
      "stateMutability": "view",
      "type": "function"
    },
    {
      "inputs": [
        {
          "internalType": "uint256",
          "name": "index",
          "type": "uint256"
        }
      ],
      "name": "tokenByIndex",
      "outputs": [
        {
          "internalType": "uint256",
          "name": "",
          "type": "uint256"
        }
      ],
      "stateMutability": "view",
      "type": "function"
    },
    {
      "inputs": [
        {
          "internalType": "address",
          "name": "owner",
          "type": "address"
        },
        {
          "internalType": "uint256",
          "name": "index",
          "type": "uint256"
        }
      ],
      "name": "tokenOfOwnerByIndex",
      "outputs": [
        {
          "internalType": "uint256",
          "name": "",
          "type": "uint256"
        }
      ],
      "stateMutability": "view",
      "type": "function"
    },
    {
      "inputs": [
        {
          "internalType": "uint256",
          "name": "tokenId",
          "type": "uint256"
        }
      ],
      "name": "tokenURI",
      "outputs": [
        {
          "internalType": "string",
          "name": "",
          "type": "string"
        }
      ],
      "stateMutability": "view",
      "type": "function"
    },
    {
      "inputs": [],
      "name": "totalSupply",
      "outputs": [
        {
          "internalType": "uint256",
          "name": "",
          "type": "uint256"
        }
      ],
      "stateMutability": "view",
      "type": "function"
    },
    {
      "inputs": [
        {
          "internalType": "address",
          "name": "from",
          "type": "address"
        },
        {
          "internalType": "address",
          "name": "to",
          "type": "address"
        },
        {
          "internalType": "uint256",
          "name": "tokenId",
          "type": "uint256"
        }
      ],
      "name": "transferFrom",
      "outputs": [],
      "stateMutability": "nonpayable",
      "type": "function"
    }
  ],
  "bytecode": "0x60a06040526000805560006007553480156200001a57600080fd5b5060405162001943380380620019438339810160408190526200003d9162000233565b60008111620000a25760405162461bcd60e51b815260206004820152602760248201527f455243373231413a206d61782062617463682073697a65206d757374206265206044820152666e6f6e7a65726f60c81b606482015260840160405180910390fd5b8251620000b7906001906020860190620000da565b508151620000cd906002906020850190620000da565b5060805250620002f69050565b828054620000e890620002a3565b90600052602060002090601f0160209004810192826200010c576000855562000157565b82601f106200012757805160ff191683800117855562000157565b8280016001018555821562000157579182015b82811115620001575782518255916020019190600101906200013a565b506200016592915062000169565b5090565b5b808211156200016557600081556001016200016a565b600082601f83011262000191578081fd5b81516001600160401b0380821115620001ae57620001ae620002e0565b604051601f8301601f19908116603f01168101908282118183101715620001d957620001d9620002e0565b81604052838152602092508683858801011115620001f5578485fd5b8491505b83821015620002185785820183015181830184015290820190620001f9565b838211156200022957848385830101525b9695505050505050565b60008060006060848603121562000248578283fd5b83516001600160401b03808211156200025f578485fd5b6200026d8783880162000180565b9450602086015191508082111562000283578384fd5b50620002928682870162000180565b925050604084015190509250925092565b600181811c90821680620002b857607f821691505b60208210811415620002da57634e487b7160e01b600052602260045260246000fd5b50919050565b634e487b7160e01b600052604160045260246000fd5b60805161162a6200031960003960008181610de90152610e13015261162a6000f3fe608060405234801561001057600080fd5b50600436106100db5760003560e01c806301ffc9a7146100e057806306fdde0314610108578063081812fc1461011d578063095ea7b31461014857806318160ddd1461015d57806323b872dd1461016f5780632f745c591461018257806342842e0e146101955780634f6ccce7146101a85780636352211e146101bb57806370a08231146101ce57806395d89b41146101e1578063a22cb465146101e9578063b88d4fde146101fc578063c87b56dd1461020f578063d7224ba014610222578063e985e9c51461022b575b600080fd5b6100f36100ee366004611311565b610267565b60405190151581526020015b60405180910390f35b6101106102d4565b6040516100ff91906113f9565b61013061012b366004611349565b610366565b6040516001600160a01b0390911681526020016100ff565b61015b6101563660046112e8565b6103f6565b005b6000545b6040519081526020016100ff565b61015b61017d36600461119f565b61050a565b6101616101903660046112e8565b610515565b61015b6101a336600461119f565b610682565b6101616101b6366004611349565b61069d565b6101306101c9366004611349565b6106ff565b6101616101dc366004611153565b610711565b6101106107a2565b61015b6101f73660046112ae565b6107b1565b61015b61020a3660046111da565b610873565b61011061021d366004611349565b6108ac565b61016160075481565b6100f361023936600461116d565b6001600160a01b03918216600090815260066020908152604080832093909416825291909152205460ff1690565b60006001600160e01b031982166380ac58cd60e01b148061029857506001600160e01b03198216635b5e139f60e01b145b806102b357506001600160e01b0319821663780e9d6360e01b145b806102ce57506301ffc9a760e01b6001600160e01b03198316145b92915050565b6060600180546102e39061152f565b80601f016020809104026020016040519081016040528092919081815260200182805461030f9061152f565b801561035c5780601f106103315761010080835404028352916020019161035c565b820191906000526020600020905b81548152906001019060200180831161033f57829003601f168201915b5050505050905090565b6000610373826000541190565b6103da5760405162461bcd60e51b815260206004820152602d60248201527f455243373231413a20617070726f76656420717565727920666f72206e6f6e6560448201526c3c34b9ba32b73a103a37b5b2b760991b60648201526084015b60405180910390fd5b506000908152600560205260409020546001600160a01b031690565b6000610401826106ff565b9050806001600160a01b0316836001600160a01b031614156104705760405162461bcd60e51b815260206004820152602260248201527f455243373231413a20617070726f76616c20746f2063757272656e74206f776e60448201526132b960f11b60648201526084016103d1565b336001600160a01b038216148061048c575061048c8133610239565b6104fa5760405162461bcd60e51b815260206004820152603960248201527f455243373231413a20617070726f76652063616c6c6572206973206e6f74206f6044820152781ddb995c881b9bdc88185c1c1c9bdd995908199bdc88185b1b603a1b60648201526084016103d1565b610505838383610986565b505050565b6105058383836109e2565b600061052083610711565b82106105795760405162461bcd60e51b815260206004820152602260248201527f455243373231413a206f776e657220696e646578206f7574206f6620626f756e604482015261647360f01b60648201526084016103d1565b600080549080805b83811015610622576000818152600360209081526040918290208251808401909352546001600160a01b038116808452600160a01b9091046001600160401b031691830191909152156105d357805192505b876001600160a01b0316836001600160a01b0316141561060f5786841415610601575093506102ce92505050565b8361060b8161156a565b9450505b508061061a8161156a565b915050610581565b5060405162461bcd60e51b815260206004820152602e60248201527f455243373231413a20756e61626c6520746f2067657420746f6b656e206f662060448201526d0deeedccae440c4f240d2dcc8caf60931b60648201526084016103d1565b61050583838360405180602001604052806000815250610873565b6000805482106106fb5760405162461bcd60e51b815260206004820152602360248201527f455243373231413a20676c6f62616c20696e646578206f7574206f6620626f756044820152626e647360e81b60648201526084016103d1565b5090565b600061070a82610d67565b5192915050565b60006001600160a01b03821661077d5760405162461bcd60e51b815260206004820152602b60248201527f455243373231413a2062616c616e636520717565727920666f7220746865207a60448201526a65726f206164647265737360a81b60648201526084016103d1565b506001600160a01b03166000908152600460205260409020546001600160801b031690565b6060600280546102e39061152f565b6001600160a01b0382163314156108075760405162461bcd60e51b815260206004820152601a60248201527922a9219b9918a09d1030b8383937bb32903a379031b0b63632b960311b60448201526064016103d1565b3360008181526006602090815260408083206001600160a01b03871680855290835292819020805460ff191686151590811790915590519081529192917f17307eab39ab6107e8899845ad3d59bd9653f200f220920489ca2b5937696c31910160405180910390a35050565b61087e8484846109e2565b61088a84848484610f10565b6108a65760405162461bcd60e51b81526004016103d19061140c565b50505050565b60606108b9826000541190565b61091d5760405162461bcd60e51b815260206004820152602f60248201527f4552433732314d657461646174613a2055524920717565727920666f72206e6f60448201526e3732bc34b9ba32b73a103a37b5b2b760891b60648201526084016103d1565b600061093460408051602081019091526000815290565b90506000815111610954576040518060200160405280600081525061097f565b8061095e8461101e565b60405160200161096f92919061138d565b6040516020818303038152906040525b9392505050565b60008281526005602052604080822080546001600160a01b0319166001600160a01b0387811691821790925591518593918516917f8c5be1e5ebec7d5bd14f71427d1e84f3dd0314c0f7b2291e5b200ac8c7c3b92591a4505050565b60006109ed82610d67565b80519091506000906001600160a01b0316336001600160a01b03161480610a24575033610a1984610366565b6001600160a01b0316145b80610a3657508151610a369033610239565b905080610aa05760405162461bcd60e51b815260206004820152603260248201527f455243373231413a207472616e736665722063616c6c6572206973206e6f74206044820152711bdddb995c881b9bdc88185c1c1c9bdd995960721b60648201526084016103d1565b846001600160a01b031682600001516001600160a01b031614610b145760405162461bcd60e51b815260206004820152602660248201527f455243373231413a207472616e736665722066726f6d20696e636f72726563746044820152651037bbb732b960d11b60648201526084016103d1565b6001600160a01b038416610b785760405162461bcd60e51b815260206004820152602560248201527f455243373231413a207472616e7366657220746f20746865207a65726f206164604482015264647265737360d81b60648201526084016103d1565b610b886000848460000151610986565b6001600160a01b0385166000908152600460205260408120805460019290610bba9084906001600160801b03166114ad565b82546101009290920a6001600160801b038181021990931691831602179091556001600160a01b03861660009081526004602052604081208054600194509092610c069185911661145f565b82546001600160801b039182166101009390930a9283029190920219909116179055506040805180820182526001600160a01b0380871682526001600160401b03428116602080850191825260008981526003909152948520935184549151909216600160a01b026001600160e01b03199091169190921617179055610c8d846001611481565b6000818152600360205260409020549091506001600160a01b0316610d1e57610cb7816000541190565b15610d1e5760408051808201825284516001600160a01b0390811682526020808701516001600160401b039081168285019081526000878152600390935294909120925183549451909116600160a01b026001600160e01b03199094169116179190911790555b83856001600160a01b0316876001600160a01b03167fddf252ad1be2c89b69c2b068fc378daa952ba7f163c4a11628f55a4df523b3ef60405160405180910390a4505050505050565b6040805180820190915260008082526020820152610d86826000541190565b610de55760405162461bcd60e51b815260206004820152602a60248201527f455243373231413a206f776e657220717565727920666f72206e6f6e657869736044820152693a32b73a103a37b5b2b760b11b60648201526084016103d1565b60007f00000000000000000000000000000000000000000000000000000000000000008310610e4657610e387f0000000000000000000000000000000000000000000000000000000000000000846114d5565b610e43906001611481565b90505b825b818110610eaf576000818152600360209081526040918290208251808401909352546001600160a01b038116808452600160a01b9091046001600160401b03169183019190915215610e9c57949350505050565b5080610ea781611518565b915050610e48565b5060405162461bcd60e51b815260206004820152602f60248201527f455243373231413a20756e61626c6520746f2064657465726d696e652074686560448201526e1037bbb732b91037b3103a37b5b2b760891b60648201526084016103d1565b60006001600160a01b0384163b1561101257604051630a85bd0160e11b81526001600160a01b0385169063150b7a0290610f549033908990889088906004016113bc565b602060405180830381600087803b158015610f6e57600080fd5b505af1925050508015610f9e575060408051601f3d908101601f19168201909252610f9b9181019061132d565b60015b610ff8573d808015610fcc576040519150601f19603f3d011682016040523d82523d6000602084013e610fd1565b606091505b508051610ff05760405162461bcd60e51b81526004016103d19061140c565b805181602001fd5b6001600160e01b031916630a85bd0160e11b149050611016565b5060015b949350505050565b6060816110425750506040805180820190915260018152600360fc1b602082015290565b8160005b811561106c57806110568161156a565b91506110659050600a83611499565b9150611046565b6000816001600160401b0381111561109457634e487b7160e01b600052604160045260246000fd5b6040519080825280601f01601f1916602001820160405280156110be576020820181803683370190505b5090505b8415611016576110d36001836114d5565b91506110e0600a86611585565b6110eb906030611481565b60f81b81838151811061110e57634e487b7160e01b600052603260045260246000fd5b60200101906001600160f81b031916908160001a905350611130600a86611499565b94506110c2565b80356001600160a01b038116811461114e57600080fd5b919050565b600060208284031215611164578081fd5b61097f82611137565b6000806040838503121561117f578081fd5b61118883611137565b915061119660208401611137565b90509250929050565b6000806000606084860312156111b3578081fd5b6111bc84611137565b92506111ca60208501611137565b9150604084013590509250925092565b600080600080608085870312156111ef578081fd5b6111f885611137565b935061120660208601611137565b92506040850135915060608501356001600160401b0380821115611228578283fd5b818701915087601f83011261123b578283fd5b81358181111561124d5761124d6115c5565b604051601f8201601f19908116603f01168101908382118183101715611275576112756115c5565b816040528281528a602084870101111561128d578586fd5b82602086016020830137918201602001949094529598949750929550505050565b600080604083850312156112c0578182fd5b6112c983611137565b9150602083013580151581146112dd578182fd5b809150509250929050565b600080604083850312156112fa578182fd5b61130383611137565b946020939093013593505050565b600060208284031215611322578081fd5b813561097f816115db565b60006020828403121561133e578081fd5b815161097f816115db565b60006020828403121561135a578081fd5b5035919050565b600081518084526113798160208601602086016114ec565b601f01601f19169290920160200192915050565b6000835161139f8184602088016114ec565b8351908301906113b38183602088016114ec565b01949350505050565b6001600160a01b03858116825284166020820152604081018390526080606082018190526000906113ef90830184611361565b9695505050505050565b60208152600061097f6020830184611361565b60208082526033908201527f455243373231413a207472616e7366657220746f206e6f6e204552433732315260408201527232b1b2b4bb32b91034b6b83632b6b2b73a32b960691b606082015260800190565b60006001600160801b038281168482168083038211156113b3576113b3611599565b6000821982111561149457611494611599565b500190565b6000826114a8576114a86115af565b500490565b60006001600160801b03838116908316818110156114cd576114cd611599565b039392505050565b6000828210156114e7576114e7611599565b500390565b60005b838110156115075781810151838201526020016114ef565b838111156108a65750506000910152565b60008161152757611527611599565b506000190190565b600181811c9082168061154357607f821691505b6020821081141561156457634e487b7160e01b600052602260045260246000fd5b50919050565b600060001982141561157e5761157e611599565b5060010190565b600082611594576115946115af565b500690565b634e487b7160e01b600052601160045260246000fd5b634e487b7160e01b600052601260045260246000fd5b634e487b7160e01b600052604160045260246000fd5b6001600160e01b0319811681146115f157600080fd5b5056fea26469706673582212207eb7ccdd9fb349b57cb5774fbe960bd4b0d1603ff006973525d81f585a5e3b7064736f6c63430008040033",
  "linkReferences": {},
  "deployedLinkReferences": {}
}