{
  "_format": "hh-sol-artifact-1",
  "contractName": "AnimaNFT",
  "sourceName": "contracts/AnimaNFT.sol",
  "abi": [
    {
      "inputs": [
        {
          "internalType": "string[]",
          "name": "_eligibleTokenSymbols",
          "type": "string[]"
        },
        {
          "internalType": "address[]",
          "name": "_eligibleTokenAddresses",
          "type": "address[]"
        }
      ],
      "stateMutability": "nonpayable",
      "type": "constructor"
    },
    {
      "anonymous": false,
      "inputs": [
        {
          "indexed": true,
          "internalType": "address",
          "name": "owner",
          "type": "address"
        },
        {
          "indexed": true,
          "internalType": "address",
          "name": "approved",
          "type": "address"
        },
        {
          "indexed": true,
          "internalType": "uint256",
          "name": "tokenId",
          "type": "uint256"
        }
      ],
      "name": "Approval",
      "type": "event"
    },
    {
      "anonymous": false,
      "inputs": [
        {
          "indexed": true,
          "internalType": "address",
          "name": "owner",
          "type": "address"
        },
        {
          "indexed": true,
          "internalType": "address",
          "name": "operator",
          "type": "address"
        },
        {
          "indexed": false,
          "internalType": "bool",
          "name": "approved",
          "type": "bool"
        }
      ],
      "name": "ApprovalForAll",
      "type": "event"
    },
    {
      "anonymous": false,
      "inputs": [
        {
          "indexed": true,
          "internalType": "address",
          "name": "burner",
          "type": "address"
        },
        {
          "indexed": true,
          "internalType": "uint256",
          "name": "tokenId",
          "type": "uint256"
        },
        {
          "indexed": true,
          "internalType": "uint256",
          "name": "withdrawAmount",
          "type": "uint256"
        },
        {
          "indexed": false,
          "internalType": "uint256",
          "name": "burntAt",
          "type": "uint256"
        }
      ],
      "name": "Burnt",
      "type": "event"
    },
    {
      "anonymous": false,
      "inputs": [
        {
          "indexed": true,
          "internalType": "address",
          "name": "minter",
          "type": "address"
        },
        {
          "indexed": true,
          "internalType": "uint256",
          "name": "startTokenId",
          "type": "uint256"
        },
        {
          "indexed": true,
          "internalType": "uint256",
          "name": "quantity",
          "type": "uint256"
        },
        {
          "indexed": false,
          "internalType": "uint256",
          "name": "depositAmount",
          "type": "uint256"
        },
        {
          "indexed": false,
          "internalType": "uint256",
          "name": "mintedAt",
          "type": "uint256"
        }
      ],
      "name": "Minted",
      "type": "event"
    },
    {
      "anonymous": false,
      "inputs": [
        {
          "indexed": true,
          "internalType": "address",
          "name": "previousOwner",
          "type": "address"
        },
        {
          "indexed": true,
          "internalType": "address",
          "name": "newOwner",
          "type": "address"
        }
      ],
      "name": "OwnershipTransferred",
      "type": "event"
    },
    {
      "anonymous": false,
      "inputs": [
        {
          "indexed": true,
          "internalType": "address",
          "name": "from",
          "type": "address"
        },
        {
          "indexed": true,
          "internalType": "address",
          "name": "to",
          "type": "address"
        },
        {
          "indexed": true,
          "internalType": "uint256",
          "name": "tokenId",
          "type": "uint256"
        }
      ],
      "name": "Transfer",
      "type": "event"
    },
    {
      "inputs": [],
      "name": "RESERVED_AMOUNT",
      "outputs": [
        {
          "internalType": "uint256",
          "name": "",
          "type": "uint256"
        }
      ],
      "stateMutability": "view",
      "type": "function"
    },
    {
      "inputs": [],
      "name": "SALE_PRICE",
      "outputs": [
        {
          "internalType": "uint256",
          "name": "",
          "type": "uint256"
        }
      ],
      "stateMutability": "view",
      "type": "function"
    },
    {
      "inputs": [],
      "name": "TOTAL_AMOUNT",
      "outputs": [
        {
          "internalType": "uint256",
          "name": "",
          "type": "uint256"
        }
      ],
      "stateMutability": "view",
      "type": "function"
    },
    {
      "inputs": [
        {
          "internalType": "address",
          "name": "to",
          "type": "address"
        },
        {
          "internalType": "uint256",
          "name": "tokenId",
          "type": "uint256"
        }
      ],
      "name": "approve",
      "outputs": [],
      "stateMutability": "nonpayable",
      "type": "function"
    },
    {
      "inputs": [
        {
          "internalType": "address",
          "name": "owner",
          "type": "address"
        }
      ],
      "name": "balanceOf",
      "outputs": [
        {
          "internalType": "uint256",
          "name": "",
          "type": "uint256"
        }
      ],
      "stateMutability": "view",
      "type": "function"
    },
    {
      "inputs": [],
      "name": "contractRegistryAddress",
      "outputs": [
        {
          "internalType": "address",
          "name": "",
          "type": "address"
        }
      ],
      "stateMutability": "view",
      "type": "function"
    },
    {
      "inputs": [
        {
          "internalType": "address",
          "name": "_fromToken",
          "type": "address"
        },
        {
          "internalType": "address",
          "name": "_toToken",
          "type": "address"
        },
        {
          "internalType": "uint256",
          "name": "_amount",
          "type": "uint256"
        }
      ],
      "name": "convertNCTAmount",
      "outputs": [
        {
          "internalType": "uint256",
          "name": "",
          "type": "uint256"
        }
      ],
      "stateMutability": "nonpayable",
      "type": "function"
    },
    {
      "inputs": [
        {
          "internalType": "uint256",
          "name": "",
          "type": "uint256"
        }
      ],
      "name": "deposits",
      "outputs": [
        {
          "internalType": "uint256",
          "name": "",
          "type": "uint256"
        }
      ],
      "stateMutability": "view",
      "type": "function"
    },
    {
      "inputs": [
        {
          "internalType": "string",
          "name": "",
          "type": "string"
        }
      ],
      "name": "eligibleTokenAddresses",
      "outputs": [
        {
          "internalType": "address",
          "name": "",
          "type": "address"
        }
      ],
      "stateMutability": "view",
      "type": "function"
    },
    {
      "inputs": [
        {
          "internalType": "address",
          "name": "_toToken",
          "type": "address"
        },
        {
          "internalType": "uint256",
          "name": "_amount",
          "type": "uint256"
        }
      ],
      "name": "estimateTokenToSwap",
      "outputs": [
        {
          "internalType": "uint256",
          "name": "",
          "type": "uint256"
        }
      ],
      "stateMutability": "view",
      "type": "function"
    },
    {
      "inputs": [
        {
          "internalType": "uint256",
          "name": "tokenId",
          "type": "uint256"
        }
      ],
      "name": "getApproved",
      "outputs": [
        {
          "internalType": "address",
          "name": "",
          "type": "address"
        }
      ],
      "stateMutability": "view",
      "type": "function"
    },
    {
      "inputs": [],
      "name": "is2ndSaleActive",
      "outputs": [
        {
          "internalType": "bool",
          "name": "",
          "type": "bool"
        }
      ],
      "stateMutability": "view",
      "type": "function"
    },
    {
      "inputs": [
        {
          "internalType": "address",
          "name": "owner",
          "type": "address"
        },
        {
          "internalType": "address",
          "name": "operator",
          "type": "address"
        }
      ],
      "name": "isApprovedForAll",
      "outputs": [
        {
          "internalType": "bool",
          "name": "",
          "type": "bool"
        }
      ],
      "stateMutability": "view",
      "type": "function"
    },
    {
      "inputs": [],
      "name": "isFinalSaleActive",
      "outputs": [
        {
          "internalType": "bool",
          "name": "",
          "type": "bool"
        }
      ],
      "stateMutability": "view",
      "type": "function"
    },
    {
      "inputs": [],
      "name": "isSaleActive",
      "outputs": [
        {
          "internalType": "bool",
          "name": "",
          "type": "bool"
        }
      ],
      "stateMutability": "view",
      "type": "function"
    },
    {
      "inputs": [
        {
          "internalType": "uint256",
          "name": "_quantity",
          "type": "uint256"
        },
        {
          "internalType": "address",
          "name": "_tokenAddress",
          "type": "address"
        },
        {
          "internalType": "uint256",
          "name": "_amount",
          "type": "uint256"
        }
      ],
      "name": "mint",
      "outputs": [],
      "stateMutability": "nonpayable",
      "type": "function"
    },
    {
      "inputs": [
        {
          "internalType": "address",
          "name": "to_",
          "type": "address"
        },
        {
          "internalType": "uint256",
          "name": "quantity_",
          "type": "uint256"
        }
      ],
      "name": "mintToTeam",
      "outputs": [],
      "stateMutability": "nonpayable",
      "type": "function"
    },
    {
      "inputs": [],
      "name": "name",
      "outputs": [
        {
          "internalType": "string",
          "name": "",
          "type": "string"
        }
      ],
      "stateMutability": "view",
      "type": "function"
    },
    {
      "inputs": [],
      "name": "owner",
      "outputs": [
        {
          "internalType": "address",
          "name": "",
          "type": "address"
        }
      ],
      "stateMutability": "view",
      "type": "function"
    },
    {
      "inputs": [
        {
          "internalType": "uint256",
          "name": "tokenId",
          "type": "uint256"
        }
      ],
      "name": "ownerOf",
      "outputs": [
        {
          "internalType": "address",
          "name": "",
          "type": "address"
        }
      ],
      "stateMutability": "view",
      "type": "function"
    },
    {
      "inputs": [],
      "name": "renounceOwnership",
      "outputs": [],
      "stateMutability": "nonpayable",
      "type": "function"
    },
    {
      "inputs": [
        {
          "internalType": "address",
          "name": "from",
          "type": "address"
        },
        {
          "internalType": "address",
          "name": "to",
          "type": "address"
        },
        {
          "internalType": "uint256",
          "name": "tokenId",
          "type": "uint256"
        }
      ],
      "name": "safeTransferFrom",
      "outputs": [],
      "stateMutability": "nonpayable",
      "type": "function"
    },
    {
      "inputs": [
        {
          "internalType": "address",
          "name": "from",
          "type": "address"
        },
        {
          "internalType": "address",
          "name": "to",
          "type": "address"
        },
        {
          "internalType": "uint256",
          "name": "tokenId",
          "type": "uint256"
        },
        {
          "internalType": "bytes",
          "name": "data",
          "type": "bytes"
        }
      ],
      "name": "safeTransferFrom",
      "outputs": [],
      "stateMutability": "nonpayable",
      "type": "function"
    },
    {
      "inputs": [
        {
          "internalType": "address",
          "name": "operator",
          "type": "address"
        },
        {
          "internalType": "bool",
          "name": "approved",
          "type": "bool"
        }
      ],
      "name": "setApprovalForAll",
      "outputs": [],
      "stateMutability": "nonpayable",
      "type": "function"
    },
    {
      "inputs": [
        {
          "internalType": "bytes4",
          "name": "interfaceId",
          "type": "bytes4"
        }
      ],
      "name": "supportsInterface",
      "outputs": [
        {
          "internalType": "bool",
          "name": "",
          "type": "bool"
        }
      ],
      "stateMutability": "view",
      "type": "function"
    },
    {
      "inputs": [],
      "name": "sushiRouterAddress",
      "outputs": [
        {
          "internalType": "address",
          "name": "",
          "type": "address"
        }
      ],
      "stateMutability": "view",
      "type": "function"
    },
    {
      "inputs": [
        {
          "internalType": "address",
          "name": "_fromToken",
          "type": "address"
        },
        {
          "internalType": "address",
          "name": "_toToken",
          "type": "address"
        },
        {
          "internalType": "uint256",
          "name": "_amount",
          "type": "uint256"
        }
      ],
      "name": "swap",
      "outputs": [
        {
          "internalType": "uint256[]",
          "name": "",
          "type": "uint256[]"
        }
      ],
      "stateMutability": "nonpayable",
      "type": "function"
    },
    {
      "inputs": [],
      "name": "symbol",
      "outputs": [
        {
          "internalType": "string",
          "name": "",
          "type": "string"
        }
      ],
      "stateMutability": "view",
      "type": "function"
    },
    {
      "inputs": [],
      "name": "toggleSaleActive",
      "outputs": [],
      "stateMutability": "nonpayable",
      "type": "function"
    },
    {
      "inputs": [
        {
          "internalType": "uint256",
          "name": "tokenId",
          "type": "uint256"
        }
      ],
      "name": "tokenURI",
      "outputs": [
        {
          "internalType": "string",
          "name": "",
          "type": "string"
        }
      ],
      "stateMutability": "view",
      "type": "function"
    },
    {
      "inputs": [
        {
          "internalType": "address",
          "name": "from",
          "type": "address"
        },
        {
          "internalType": "address",
          "name": "to",
          "type": "address"
        },
        {
          "internalType": "uint256",
          "name": "tokenId",
          "type": "uint256"
        }
      ],
      "name": "transferFrom",
      "outputs": [],
      "stateMutability": "nonpayable",
      "type": "function"
    },
    {
      "inputs": [
        {
          "internalType": "address",
          "name": "newOwner",
          "type": "address"
        }
      ],
      "name": "transferOwnership",
      "outputs": [],
      "stateMutability": "nonpayable",
      "type": "function"
    },
    {
      "inputs": [
        {
          "internalType": "address",
          "name": "contractRegistryAddress_",
          "type": "address"
        },
        {
          "internalType": "address",
          "name": "sushiRouterAddress_",
          "type": "address"
        },
        {
          "internalType": "address",
          "name": "adminWallet_",
          "type": "address"
        }
      ],
      "name": "updateContractAddresses",
      "outputs": [],
      "stateMutability": "nonpayable",
      "type": "function"
    },
    {
      "inputs": [
        {
          "internalType": "uint256",
          "name": "_tokenId",
          "type": "uint256"
        }
      ],
      "name": "withdrawBurn",
      "outputs": [],
      "stateMutability": "nonpayable",
      "type": "function"
    }
  ],
  "bytecode": "0x6080604052600980546001600160a01b031990811673263fa1c180889b3a3f46330f32a4a23287e99fc917909155600a80548216731b02da8cb0d097eb8d57a175b88c7d8b47997506179055600d805462ffffff191690556032600e556122b8600f5567011c37937e0800006010556011805490911673d387098b3ca4c6d592be0ce0b69e83be86011c501790553480156200009a57600080fd5b506040516200334438038062003344833981016040819052620000bd91620003e5565b60405180604001604052806009815260200168105b9a5b584813919560ba1b81525060405180604001604052806005815260200164414e494d4160d81b81525062000117620001116200025f60201b60201c565b62000263565b60018055815162000130906002906020850190620002b3565b50805162000146906003906020840190620002b3565b50505081518151146200019f5760405162461bcd60e51b815260206004820152601460248201527f50726f766964652076616c696420746f6b656e73000000000000000000000000604482015260640160405180910390fd5b81516000905b808210156200025557828281518110620001cf57634e487b7160e01b600052603260045260246000fd5b60200260200101516008858481518110620001fa57634e487b7160e01b600052603260045260246000fd5b60200260200101516040516200021191906200051c565b90815260405190819003602001902080546001600160a01b03929092166001600160a01b03199092169190911790556200024d60018362000593565b9150620001a5565b505050506200063e565b3390565b600080546001600160a01b038381166001600160a01b0319831681178455604051919092169283917f8be0079c531659141344cd1fd0a4f28419497f9722a3daafe3b4186f6b6457e09190a35050565b828054620002c190620005eb565b90600052602060002090601f016020900481019282620002e5576000855562000330565b82601f106200030057805160ff191683800117855562000330565b8280016001018555821562000330579182015b828111156200033057825182559160200191906001019062000313565b506200033e92915062000342565b5090565b5b808211156200033e576000815560010162000343565b600082601f8301126200036a578081fd5b81516020620003836200037d836200056d565b6200053a565b80838252828201915082860187848660051b8901011115620003a3578586fd5b855b85811015620003d85781516001600160a01b0381168114620003c5578788fd5b84529284019290840190600101620003a5565b5090979650505050505050565b6000806040808486031215620003f9578283fd5b83516001600160401b038082111562000410578485fd5b818601915086601f83011262000424578485fd5b81516020620004376200037d836200056d565b8083825282820191508286018b848660051b89010111156200045757898afd5b895b85811015620004e75781518781111562000471578b8cfd5b8801603f81018e1362000482578b8cfd5b858101518881111562000499576200049962000628565b620004ad601f8201601f191688016200053a565b8181528f8c838501011115620004c1578d8efd5b620004d2828983018e8601620005b8565b86525050928401929084019060010162000459565b50509189015191975090945050508083111562000502578384fd5b5050620005128582860162000359565b9150509250929050565b6000825162000530818460208701620005b8565b9190910192915050565b604051601f8201601f191681016001600160401b038111828210171562000565576200056562000628565b604052919050565b60006001600160401b0382111562000589576200058962000628565b5060051b60200190565b60008219821115620005b357634e487b7160e01b81526011600452602481fd5b500190565b60005b83811015620005d5578181015183820152602001620005bb565b83811115620005e5576000848401525b50505050565b600181811c908216806200060057607f821691505b602082108114156200062257634e487b7160e01b600052602260045260246000fd5b50919050565b634e487b7160e01b600052604160045260246000fd5b612cf6806200064e6000396000f3fe608060405234801561001057600080fd5b50600436106101965760003560e01c806301ffc9a71461019b57806306fdde03146101c3578063081812fc146101d8578063095ea7b3146101f857806317cf1b2e1461020d5780632071088a1461022057806323b872dd1461026d5780633100a5351461028057806342842e0e1461028857806346af60701461029b578063564566a8146102ae57806358821375146102bb57806358e4aa78146102ce5780635d25309d146102e15780636352211e1461031557806370a0823114610328578063715018a61461034957806379bbce8f146103515780637f205a7414610364578063836a10401461036d578063845e0fca146103805780638da5cb5b1461039357806395d89b411461039b578063a22cb465146103a3578063a2d7f5e3146103b6578063b02c43d0146103bf578063b88d4fde146103df578063c87b56dd146103f2578063d85f274014610405578063df791e501461040e578063e985e9c51461042e578063f034e6bf14610441578063f2fde38b14610453578063f55aae7d14610466575b600080fd5b6101ae6101a93660046126dc565b610479565b60405190151581526020015b60405180910390f35b6101cb6104cb565b6040516101ba9190612946565b6101eb6101e6366004612759565b61055d565b6040516101ba9190612898565b61020b6102063660046125f0565b610584565b005b61020b61021b366004612759565b61069f565b61020b61022e3660046124c5565b600980546001600160a01b039485166001600160a01b031991821617909155600a80549385169382169390931790925560118054919093169116179055565b61020b61027b366004612507565b6107e2565b61020b610813565b61020b610296366004612507565b61082f565b6009546101eb906001600160a01b031681565b600d546101ae9060ff1681565b600d546101ae9062010000900460ff1681565b61020b6102dc3660046125f0565b61084a565b6101eb6102ef366004612714565b80516020818301810180516008825292820191909301209152546001600160a01b031681565b6101eb610323366004612759565b6108be565b61033b610336366004612479565b6108f3565b6040519081526020016101ba565b61020b610979565b600a546101eb906001600160a01b031681565b61033b60105481565b61020b61037b366004612789565b61098d565b61033b61038e3660046125f0565b610e52565b6101eb61109a565b6101cb6110a9565b61020b6103b13660046125ba565b6110b8565b61033b600f5481565b61033b6103cd366004612759565b600b6020526000908152604090205481565b61020b6103ed366004612542565b6110c3565b6101cb610400366004612759565b6110fb565b61033b600e5481565b61042161041c366004612507565b61116f565b6040516101ba9190612902565b6101ae61043c366004612493565b611497565b600d546101ae90610100900460ff1681565b61020b610461366004612479565b6114c5565b61033b610474366004612507565b61153e565b60006001600160e01b031982166380ac58cd60e01b14806104aa57506001600160e01b03198216635b5e139f60e01b145b806104c557506301ffc9a760e01b6001600160e01b03198316145b92915050565b6060600280546104da90612bd0565b80601f016020809104026020016040519081016040528092919081815260200182805461050690612bd0565b80156105535780601f1061052857610100808354040283529160200191610553565b820191906000526020600020905b81548152906001019060200180831161053657829003601f168201915b5050505050905090565b6000610568826117de565b506000908152600660205260409020546001600160a01b031690565b600061058f826108be565b9050806001600160a01b0316836001600160a01b031614156106025760405162461bcd60e51b815260206004820152602160248201527f4552433732313a20617070726f76616c20746f2063757272656e74206f776e656044820152603960f91b60648201526084015b60405180910390fd5b336001600160a01b038216148061061e575061061e8133611497565b6106905760405162461bcd60e51b815260206004820152603e60248201527f4552433732313a20617070726f76652063616c6c6572206973206e6f7420746f60448201527f6b656e206f776e6572206e6f7220617070726f76656420666f7220616c6c000060648201526084016105f9565b61069a8383611803565b505050565b600260015414156106c25760405162461bcd60e51b81526004016105f990612a86565b6002600155336106d1826108be565b6001600160a01b0316146107335760405162461bcd60e51b8152602060048201526024808201527f73656e646572206973206e6f74206f776e6572206f66207468697320746f6b656044820152631b881a5960e21b60648201526084016105f9565b61073c81611871565b6000600b6000838152602001908152602001600020549050610789303383600860405161076890612867565b908152604051908190036020019020546001600160a01b03169291906118fa565b6000828152600b602052604080822091909155518190839033907fc2a548f52deca3c045639d538390e23a705f54bc393d78d89120170846b53701906107d29042815260200190565b60405180910390a4505060018055565b6107ec3382611954565b6108085760405162461bcd60e51b81526004016105f990612a38565b61069a8383836119b3565b61081b611b3d565b600d805460ff19811660ff90911615179055565b61069a838383604051806020016040528060008152506110c3565b610852611b3d565b600e5481600c546108639190612b42565b106108b05760405162461bcd60e51b815260206004820181905260248201527f4578636565647320726573657276656420616d6f756e7420666f72207465616d60448201526064016105f9565b6108ba8282611b9c565b5050565b6000818152600460205260408120546001600160a01b0316806104c55760405162461bcd60e51b81526004016105f9906129da565b60006001600160a01b03821661095d5760405162461bcd60e51b815260206004820152602960248201527f4552433732313a2061646472657373207a65726f206973206e6f7420612076616044820152683634b21037bbb732b960b91b60648201526084016105f9565b506001600160a01b031660009081526005602052604090205490565b610981611b3d565b61098b6000611bb6565b565b600260015414156109b05760405162461bcd60e51b81526004016105f990612a86565b6002600155600d5460ff166109fe5760405162461bcd60e51b815260206004820152601460248201527314d85b19481b9bdd081cdd185c9d1959081e595d60621b60448201526064016105f9565b600f54600e54610a0e9190612b42565b83600c54610a1c9190612b42565b10610a645760405162461bcd60e51b8152602060048201526018602482015277115e18d95959081d1bdd185b0814d85b1948185b5bdd5b9d60421b60448201526064016105f9565b6000806008604051610a7590612867565b908152604051908190036020018120546001600160a01b039081169250851690600890610aa190612867565b908152604051908190036020019020546001600160a01b03161415610b0a5784601054610ace9190612b6e565b831015610aed5760405162461bcd60e51b81526004016105f990612a0c565b610b026001600160a01b0382163330866118fa565b829150610d3d565b6040516370a0823160e01b815284906000906001600160a01b038316906370a0823190610b3b903390600401612898565b60206040518083038186803b158015610b5357600080fd5b505afa158015610b67573d6000803e3d6000fd5b505050506040513d601f19601f82011682018060405250810190610b8b9190612771565b905084811015610bda5760405162461bcd60e51b815260206004820152601a6024820152790e8ded6cadc40c2dadeeadce840d2e640dcdee840cadcdeeaced60331b60448201526064016105f9565b6000610c0d876008604051610bee90612867565b908152604051908190036020019020546001600160a01b03168861153e565b905087601054610c1d9190612b6e565b811015610c3c5760405162461bcd60e51b81526004016105f990612a0c565b610c516001600160a01b0384163330896118fa565b600a5460405163095ea7b360e01b81526001600160a01b038581169263095ea7b392610c8592909116908a906004016128e9565b602060405180830381600087803b158015610c9f57600080fd5b505af1158015610cb3573d6000803e3d6000fd5b505050506040513d601f19601f82011682018060405250810190610cd791906126c0565b506000610d0b886008604051610cec90612867565b908152604051908190036020019020546001600160a01b03168961116f565b905080600281518110610d2e57634e487b7160e01b600052603260045260246000fd5b60200260200101519550505050505b6000610d4a600584612b5a565b90506000610d588285612b8d565b601154909150610d77906001600160a01b0385811691309116856118fa565b60005b87811015610dea57610d993382600c54610d949190612b42565b611b9c565b610da38883612b5a565b600b600083600c54610db59190612b42565b81526020019081526020016000206000828254610dd29190612b42565b90915550819050610de281612c0b565b915050610d7a565b5086600c54610df99190612b42565b600c8190558790610e0b908290612b8d565b6040805187815242602082015233917f19f5f791ee407773427bf7b970bbbc3375065c32edd1ab142e23a84f94b0719b910160405180910390a45050600180555050505050565b6000610e5d83611c06565b610ea55760405162461bcd60e51b815260206004820152601960248201527821b0b713ba1039bbb0b8103337b9103a3434b9903a37b5b2b760391b60448201526064016105f9565b600a54604080516003808252608082019092526001600160a01b0390921691600091602082016060803683370190505090506008604051610ee590612886565b9081526040519081900360200190205481516001600160a01b03909116908290600090610f2257634e487b7160e01b600052603260045260246000fd5b60200260200101906001600160a01b031690816001600160a01b0316815250506008604051610f5090612876565b9081526040519081900360200190205481516001600160a01b039091169082906001908110610f8f57634e487b7160e01b600052603260045260246000fd5b60200260200101906001600160a01b031690816001600160a01b0316815250508481600281518110610fd157634e487b7160e01b600052603260045260246000fd5b6001600160a01b0392831660209182029290920101526040516307c0329d60e21b8152600091841690631f00ca74906110109088908690600401612abd565b60006040518083038186803b15801561102857600080fd5b505afa15801561103c573d6000803e3d6000fd5b505050506040513d6000823e601f3d908101601f191682016040526110649190810190612619565b90508060008151811061108757634e487b7160e01b600052603260045260246000fd5b6020026020010151935050505092915050565b6000546001600160a01b031690565b6060600380546104da90612bd0565b6108ba338383611c8c565b6110cd3383611954565b6110e95760405162461bcd60e51b81526004016105f990612a38565b6110f584848484611d57565b50505050565b6060611106826117de565b600061111d60408051602081019091526000815290565b9050600081511161113d5760405180602001604052806000815250611168565b8061114784611d8a565b604051602001611158929190612838565b6040516020818303038152906040525b9392505050565b606061117a84611ea3565b801561118a575061118a83611c06565b6111a65760405162461bcd60e51b81526004016105f9906129ab565b6111bb6001600160a01b0385163330856118fa565b600a5460405163095ea7b360e01b81526001600160a01b038681169263095ea7b3926111ef929091169086906004016128e9565b602060405180830381600087803b15801561120957600080fd5b505af115801561121d573d6000803e3d6000fd5b505050506040513d601f19601f8201168201806040525081019061124191906126c0565b50600a54604080516003808252608082019092526001600160a01b039092169160009160208201606080368337019050509050858160008151811061129657634e487b7160e01b600052603260045260246000fd5b60200260200101906001600160a01b031690816001600160a01b03168152505060086040516112c490612876565b9081526040519081900360200190205481516001600160a01b03909116908290600190811061130357634e487b7160e01b600052603260045260246000fd5b60200260200101906001600160a01b031690816001600160a01b031681525050848160028151811061134557634e487b7160e01b600052603260045260246000fd5b6001600160a01b0392831660209182029290920101526040516307c0329d60e21b8152600091841690631f00ca74906113849088908690600401612abd565b60006040518083038186803b15801561139c57600080fd5b505afa1580156113b0573d6000803e3d6000fd5b505050506040513d6000823e601f3d908101601f191682016040526113d89190810190612619565b9050826001600160a01b0316638803dbee868360028151811061140b57634e487b7160e01b600052603260045260246000fd5b60200260200101518530426040518663ffffffff1660e01b8152600401611436959493929190612ad6565b600060405180830381600087803b15801561145057600080fd5b505af1158015611464573d6000803e3d6000fd5b505050506040513d6000823e601f3d908101601f1916820160405261148c9190810190612619565b509695505050505050565b6001600160a01b03918216600090815260076020908152604080832093909416825291909152205460ff1690565b6114cd611b3d565b6001600160a01b0381166115325760405162461bcd60e51b815260206004820152602660248201527f4f776e61626c653a206e6577206f776e657220697320746865207a65726f206160448201526564647265737360d01b60648201526084016105f9565b61153b81611bb6565b50565b600061154984611ea3565b8015611559575061155983611c06565b6115755760405162461bcd60e51b81526004016105f9906129ab565b61158a6001600160a01b0385163330856118fa565b600a5460405163095ea7b360e01b81526001600160a01b038681169263095ea7b3926115be929091169086906004016128e9565b602060405180830381600087803b1580156115d857600080fd5b505af11580156115ec573d6000803e3d6000fd5b505050506040513d601f19601f8201168201806040525081019061161091906126c0565b50600a54604080516003808252608082019092526001600160a01b039092169160009160208201606080368337019050509050858160008151811061166557634e487b7160e01b600052603260045260246000fd5b60200260200101906001600160a01b031690816001600160a01b031681525050600860405161169390612876565b9081526040519081900360200190205481516001600160a01b0390911690829060019081106116d257634e487b7160e01b600052603260045260246000fd5b60200260200101906001600160a01b031690816001600160a01b031681525050848160028151811061171457634e487b7160e01b600052603260045260246000fd5b6001600160a01b0392831660209182029290920101526040516307c0329d60e21b8152600091841690631f00ca74906117539088908690600401612abd565b60006040518083038186803b15801561176b57600080fd5b505afa15801561177f573d6000803e3d6000fd5b505050506040513d6000823e601f3d908101601f191682016040526117a79190810190612619565b9050806002815181106117ca57634e487b7160e01b600052603260045260246000fd5b602002602001015193505050509392505050565b6117e781611f2a565b61153b5760405162461bcd60e51b81526004016105f9906129da565b600081815260066020526040902080546001600160a01b0319166001600160a01b0384169081179091558190611838826108be565b6001600160a01b03167f8c5be1e5ebec7d5bd14f71427d1e84f3dd0314c0f7b2291e5b200ac8c7c3b92560405160405180910390a45050565b600061187c826108be565b9050611889600083611803565b6001600160a01b03811660009081526005602052604081208054600192906118b2908490612b8d565b909155505060008281526004602052604080822080546001600160a01b0319169055518391906001600160a01b03841690600080516020612ca1833981519152908390a45050565b604080516001600160a01b0385811660248301528416604482015260648082018490528251808303909101815260849091019091526020810180516001600160e01b03166323b872dd60e01b1790526110f5908590611f47565b600080611960836108be565b9050806001600160a01b0316846001600160a01b0316148061198757506119878185611497565b806119ab5750836001600160a01b03166119a08461055d565b6001600160a01b0316145b949350505050565b826001600160a01b03166119c6826108be565b6001600160a01b031614611a2a5760405162461bcd60e51b815260206004820152602560248201527f4552433732313a207472616e736665722066726f6d20696e636f72726563742060448201526437bbb732b960d91b60648201526084016105f9565b6001600160a01b038216611a8c5760405162461bcd60e51b8152602060048201526024808201527f4552433732313a207472616e7366657220746f20746865207a65726f206164646044820152637265737360e01b60648201526084016105f9565b611a97600082611803565b6001600160a01b0383166000908152600560205260408120805460019290611ac0908490612b8d565b90915550506001600160a01b0382166000908152600560205260408120805460019290611aee908490612b42565b909155505060008181526004602052604080822080546001600160a01b0319166001600160a01b038681169182179092559151849391871691600080516020612ca183398151915291a4505050565b33611b4661109a565b6001600160a01b03161461098b5760405162461bcd60e51b815260206004820181905260248201527f4f776e61626c653a2063616c6c6572206973206e6f7420746865206f776e657260448201526064016105f9565b6108ba828260405180602001604052806000815250612019565b600080546001600160a01b038381166001600160a01b0319831681178455604051919092169283917f8be0079c531659141344cd1fd0a4f28419497f9722a3daafe3b4186f6b6457e09190a35050565b60006008604051611c2090621090d560ea1b815260030190565b908152604051908190036020019020546001600160a01b0383811691161415611c4b57506001919050565b6008604051611c5990612867565b908152604051908190036020019020546001600160a01b0383811691161415611c8457506001919050565b506000919050565b816001600160a01b0316836001600160a01b03161415611cea5760405162461bcd60e51b815260206004820152601960248201527822a9219b99189d1030b8383937bb32903a379031b0b63632b960391b60448201526064016105f9565b6001600160a01b03838116600081815260076020908152604080832094871680845294825291829020805460ff191686151590811790915591519182527f17307eab39ab6107e8899845ad3d59bd9653f200f220920489ca2b5937696c31910160405180910390a3505050565b611d628484846119b3565b611d6e8484848461204c565b6110f55760405162461bcd60e51b81526004016105f990612959565b606081611dae5750506040805180820190915260018152600360fc1b602082015290565b8160005b8115611dd85780611dc281612c0b565b9150611dd19050600a83612b5a565b9150611db2565b6000816001600160401b03811115611e0057634e487b7160e01b600052604160045260246000fd5b6040519080825280601f01601f191660200182016040528015611e2a576020820181803683370190505b5090505b84156119ab57611e3f600183612b8d565b9150611e4c600a86612c26565b611e57906030612b42565b60f81b818381518110611e7a57634e487b7160e01b600052603260045260246000fd5b60200101906001600160f81b031916908160001a905350611e9c600a86612b5a565b9450611e2e565b60006008604051611eb390612876565b908152604051908190036020019020546001600160a01b0383811691161415611ede57506001919050565b604051630ae8aa8960e31b8152600890600401908152604051908190036020019020546001600160a01b0383811691161415611f1c57506001919050565b6008604051611c5990612886565b6000908152600460205260409020546001600160a01b0316151590565b6000611f9c826040518060400160405280602081526020017f5361666545524332303a206c6f772d6c6576656c2063616c6c206661696c6564815250856001600160a01b03166121609092919063ffffffff16565b80519091501561069a5780806020019051810190611fba91906126c0565b61069a5760405162461bcd60e51b815260206004820152602a60248201527f5361666545524332303a204552433230206f7065726174696f6e20646964206e6044820152691bdd081cdd58d8d9595960b21b60648201526084016105f9565b612023838361216f565b612030600084848461204c565b61069a5760405162461bcd60e51b81526004016105f990612959565b6000612060846001600160a01b031661228f565b1561215557604051630a85bd0160e11b81526001600160a01b0385169063150b7a02906120979033908990889088906004016128ac565b602060405180830381600087803b1580156120b157600080fd5b505af19250505080156120e1575060408051601f3d908101601f191682019092526120de918101906126f8565b60015b61213b573d80801561210f576040519150601f19603f3d011682016040523d82523d6000602084013e612114565b606091505b5080516121335760405162461bcd60e51b81526004016105f990612959565b805181602001fd5b6001600160e01b031916630a85bd0160e11b1490506119ab565b506001949350505050565b60606119ab848460008561229e565b6001600160a01b0382166121c55760405162461bcd60e51b815260206004820181905260248201527f4552433732313a206d696e7420746f20746865207a65726f206164647265737360448201526064016105f9565b6121ce81611f2a565b1561221a5760405162461bcd60e51b815260206004820152601c60248201527b115490cdcc8c4e881d1bdad95b88185b1c9958591e481b5a5b9d195960221b60448201526064016105f9565b6001600160a01b0382166000908152600560205260408120805460019290612243908490612b42565b909155505060008181526004602052604080822080546001600160a01b0319166001600160a01b0386169081179091559051839290600080516020612ca1833981519152908290a45050565b6001600160a01b03163b151590565b6060824710156122ff5760405162461bcd60e51b815260206004820152602660248201527f416464726573733a20696e73756666696369656e742062616c616e636520666f6044820152651c8818d85b1b60d21b60648201526084016105f9565b6123088561228f565b6123545760405162461bcd60e51b815260206004820152601d60248201527f416464726573733a2063616c6c20746f206e6f6e2d636f6e747261637400000060448201526064016105f9565b600080866001600160a01b03168587604051612370919061281c565b60006040518083038185875af1925050503d80600081146123ad576040519150601f19603f3d011682016040523d82523d6000602084013e6123b2565b606091505b50915091506123c28282866123cd565b979650505050505050565b606083156123dc575081611168565b8251156123ec5782518084602001fd5b8160405162461bcd60e51b81526004016105f99190612946565b60006001600160401b0383111561241f5761241f612c66565b612432601f8401601f1916602001612b12565b905082815283838301111561244657600080fd5b828260208301376000602084830101529392505050565b80356001600160a01b038116811461247457600080fd5b919050565b60006020828403121561248a578081fd5b6111688261245d565b600080604083850312156124a5578081fd5b6124ae8361245d565b91506124bc6020840161245d565b90509250929050565b6000806000606084860312156124d9578081fd5b6124e28461245d565b92506124f06020850161245d565b91506124fe6040850161245d565b90509250925092565b60008060006060848603121561251b578283fd5b6125248461245d565b92506125326020850161245d565b9150604084013590509250925092565b60008060008060808587031215612557578081fd5b6125608561245d565b935061256e6020860161245d565b92506040850135915060608501356001600160401b0381111561258f578182fd5b8501601f8101871361259f578182fd5b6125ae87823560208401612406565b91505092959194509250565b600080604083850312156125cc578182fd5b6125d58361245d565b915060208301356125e581612c7c565b809150509250929050565b60008060408385031215612602578182fd5b61260b8361245d565b946020939093013593505050565b6000602080838503121561262b578182fd5b82516001600160401b0380821115612641578384fd5b818501915085601f830112612654578384fd5b81518181111561266657612666612c66565b8060051b9150612677848301612b12565b8181528481019084860184860187018a1015612691578788fd5b8795505b838610156126b3578051835260019590950194918601918601612695565b5098975050505050505050565b6000602082840312156126d1578081fd5b815161116881612c7c565b6000602082840312156126ed578081fd5b813561116881612c8a565b600060208284031215612709578081fd5b815161116881612c8a565b600060208284031215612725578081fd5b81356001600160401b0381111561273a578182fd5b8201601f8101841361274a578182fd5b6119ab84823560208401612406565b60006020828403121561276a578081fd5b5035919050565b600060208284031215612782578081fd5b5051919050565b60008060006060848603121561279d578081fd5b833592506125326020850161245d565b6000815180845260208085019450808401835b838110156127e55781516001600160a01b0316875295820195908201906001016127c0565b509495945050505050565b60008151808452612808816020860160208601612ba4565b601f01601f19169290920160200192915050565b6000825161282e818460208701612ba4565b9190910192915050565b6000835161284a818460208801612ba4565b83519083019061285e818360208801612ba4565b01949350505050565b621390d560ea1b815260030190565b635553444360e01b815260040190565b65574d4154494360d01b815260060190565b6001600160a01b0391909116815260200190565b6001600160a01b03858116825284166020820152604081018390526080606082018190526000906128df908301846127f0565b9695505050505050565b6001600160a01b03929092168252602082015260400190565b6020808252825182820181905260009190848201906040850190845b8181101561293a5783518352928401929184019160010161291e565b50909695505050505050565b60208152600061116860208301846127f0565b60208082526032908201527f4552433732313a207472616e7366657220746f206e6f6e20455243373231526560408201527131b2b4bb32b91034b6b83632b6b2b73a32b960711b606082015260800190565b60208082526015908201527421b0b713ba1039bbb0b8103a3434b9903a37b5b2b760591b604082015260600190565b602080825260189082015277115490cdcc8c4e881a5b9d985b1a59081d1bdad95b88125160421b604082015260600190565b602080825260129082015271139bdd08195b9bdd59da081c185e5b595b9d60721b604082015260600190565b6020808252602e908201527f4552433732313a2063616c6c6572206973206e6f7420746f6b656e206f776e6560408201526d1c881b9bdc88185c1c1c9bdd995960921b606082015260800190565b6020808252601f908201527f5265656e7472616e637947756172643a207265656e7472616e742063616c6c00604082015260600190565b8281526040602082015260006119ab60408301846127ad565b85815284602082015260a060408201526000612af560a08301866127ad565b6001600160a01b0394909416606083015250608001529392505050565b604051601f8201601f191681016001600160401b0381118282101715612b3a57612b3a612c66565b604052919050565b60008219821115612b5557612b55612c3a565b500190565b600082612b6957612b69612c50565b500490565b6000816000190483118215151615612b8857612b88612c3a565b500290565b600082821015612b9f57612b9f612c3a565b500390565b60005b83811015612bbf578181015183820152602001612ba7565b838111156110f55750506000910152565b600181811c90821680612be457607f821691505b60208210811415612c0557634e487b7160e01b600052602260045260246000fd5b50919050565b6000600019821415612c1f57612c1f612c3a565b5060010190565b600082612c3557612c35612c50565b500690565b634e487b7160e01b600052601160045260246000fd5b634e487b7160e01b600052601260045260246000fd5b634e487b7160e01b600052604160045260246000fd5b801515811461153b57600080fd5b6001600160e01b03198116811461153b57600080fdfeddf252ad1be2c89b69c2b068fc378daa952ba7f163c4a11628f55a4df523b3efa2646970667358221220f1e41600c744ac3bd6e28e3dc6eb322d58dd4de40b40f7458cceb52879b6e5fa64736f6c63430008040033",
  "linkReferences": {},
  "deployedLinkReferences": {}
}